:020000040800F2
:1000000018B800201D0800083D0400083F0400083F
:1000100043040008470400084B04000800000000E7
:100020000000000000000000000000004F04000875
:1000300051040008000000005304000855040008A3
:100040003708000837080008370800083708000894
:100050003708000837080008370800083708000884
:100060003708000837080008370800083708000874
:100070003708000837080008370800083708000864
:100080003708000837080008370800083708000854
:100090003708000837080008370800083708000844
:1000A0003708000837080008370800083708000834
:1000B0003708000837080008370800083708000824
:1000C0003708000837080008370800083708000814
:1000D0003708000837080008370800083708000804
:1000E000370800083708000837080008000000003B
:1000F0000000000000000000000000000000000000
:100100000000000000000000370800083708000861
:1001100037080008370800083708000837080008C3
:1001200037080008370800083708000837080008B3
:10013000370800086104000837080008370800087D
:100140003708000837080008370800083708000893
:1001500000F002F800F03AF80AA090E8000C82449F
:100160008344AAF10107DA4501D100F02FF8AFF27C
:10017000090EBAE80F0013F0010F18BFFB1A43F085
:1001800001031847A48A0000C48A0000103A24BF63
:1001900078C878C1FAD8520724BF30C830C144BFEC
:1001A00004680C607047000000230024002500262E
:1001B000103A28BF78C1FBD8520728BF30C148BFCA
:1001C0000B6070471FB51FBD10B510BD08F076FC61
:1001D0001146FFF7F7FF00F0EBF808F094FC03B4CA
:1001E000FFF7F2FF03BC08F099FC000010B50028EF
:1001F00007DA0A07140E8A4A00F00F031B1FD454B3
:1002000003E00A07130E874A135410BD00B5AFB0C0
:10021000684600F0C8FC01200090002007904FF4D1
:1002200000700A9000200B900E90119013901020F7
:100230001490002015904FF48060099000202090C9
:100240004FF00070219000112390002025902690FF
:1002500004202890C005299040122A9080012B90FC
:1002600040122C9040002E900021684600F070FB58
:100270006D4908702FB000BD10B5012001F09DFD43
:100280004FF4004001F06FFE012001F075FE00BF49
:100290003D2001F0F3FD0028FAD00B2002F008F811
:1002A00000F0DCFA01F035F800BF01F039F8012860
:1002B000FBD0FFF7ABFF01215C4801F069F810BDEE
:1002C00008B50420ADF8000003208DF802001820C6
:1002D0008DF803006946564801F038FC0620ADF859
:1002E000000003208DF8020018208DF803006946F5
:1002F000504801F02BFC4FF46050ADF80000032093
:100300008DF8020018208DF8030069464A4801F074
:100310001DFC8220ADF8000003208DF802000420AF
:100320008DF803006946424801F010FC3020ADF81A
:10033000000003208DF8020004208DF803006946B8
:100340003C4801F003FC0120ADF8000003208DF8CB
:10035000020014208DF803006946354801F0F6FBD1
:100360000820ADF8000003208DF8020014208DF85D
:10037000030069462F4801F0E9FB08BD08B50021DC
:100380004FF0006001F04BFB4FF4A06001F010FB58
:100390003D208DF8000002208DF8010000208DF82E
:1003A000020001208DF80300684601F006FB08BD3D
:1003B00086B001214FF4E03001F026FF01217D20BD
:1003C00001F02FFFFFF7DAFFFFF77AFFFFF754FF87
:1003D00001A801F045FE64210198B0FBF1F4B4F1ED
:1003E000807F00D311E024F07F40401E4FF0E021D9
:1003F00048610F214FF0FF30FFF7F8FE00204FF06B
:10040000E02188610720086100BF0121881EFFF7F5
:10041000EDFE00F079F901E000F0C5F9FCE700001D
:1004200018ED00E000E400E0290000204000010099
:100430000008014000100140000C0140704700BF5F
:10044000FEE700BFFEE700BFFEE700BFFEE7704724
:10045000704770470A4800680A30094908607047C9
:1004600010B501E000F077F900F013FD0028F9D194
:10047000402000F076FF4FF4803000F072FF10BD96
:10048000000000200CB50020019000909248006808
:1004900040F480309049086000BF8F48006800F445
:1004A000003000900198401C0190009818B9019804
:1004B000B0F5A06FF1D18848006800F4003010B1A9
:1004C0000120009001E000200090009801285CD1FC
:1004D0008248006840F010008049086008460068C3
:1004E00020F0030008600846006840F00200086041
:1004F000794840687849486008464068486008463E
:10050000406840F4806048600846C06A744908400A
:100510007149C8620846C06A724908436E49C86298
:100520000846006840F08060086000BF6A480068C4
:1005300000F000600028F9D06748406820F47C1083
:10054000654948600846406840F4E810486008463D
:10055000006840F08070086000BF5F48006800F0ED
:1005600000700028F9D05C48406820F003005A4928
:1005700048600846406840F00200486000BF5648A6
:10058000406800F00C000828F9D10CBD10B5FFF749
:1005900079FF10BD10B55048006840F001004E4989
:1005A000086008464068504908404B494860084682
:1005B00000684E490840484908600846006820F431
:1005C000802008600846406820F4FE004860084625
:1005D000006820F0A05008604FF47F008860002081
:1005E000C862FFF7D3FF4FF000604149086010BDBB
:1005F000F0B5002100200023002400220025002661
:10060000354F7F6807F00C0121B1042908D0082973
:100610004BD10BE0374FDFF8E0C0CCF800704AE078
:10062000364FDFF8D4C0CCF8007044E02A4F7F6822
:1006300007F47010284F7F6807F48033800C0D2872
:1006400001D0801C00E0062033B92D4F4743DFF86E
:10065000A8C0CCF8007027E01F4FFF6A07F4803471
:100660001D4FFF6A07F00F077A1C44B9234FB7FBF1
:10067000F2F74743DFF880C0CCF8007014E0164F63
:10068000FF6AC7F303177D1C134FFF6AC7F30327E5
:10069000BE1C1A4FB7FBF5F77743B7FBF2F747439A
:1006A000DFF854C0CCF8007005E0124FDFF848C006
:1006B000CCF8007000BF00BF074F7F68C7F3031777
:1006C000DFF840C01CF807100B4F3F68CF40DFF841
:1006D00028C0CCF80070F0BD00100240002002409D
:1006E00000F0FEFF440601000000FFF0FFFFF6FEF1
:1006F00008ED00E000127A000400002040787D013F
:1007000000093D000800002000B587B002F0D0FCD1
:1007100002F06CFE02F069FC354806906FF07F40F5
:100720000590344804903449002000F055FC3348CB
:100730003349002204ABCDE90021029005AA06A9A5
:10074000304802F00BFF2F4802F03DFF2D4802F029
:100750009FFF07B000BD10B52A4801F0DEFE10BDB6
:1007600010B50121002000F0C2F800F00400C8B963
:100770000121002000F0BBF8044604F0240050B131
:1007800021480078012802D0FFF740FD06E01D480F
:1007900002F099FF02E01B4802F0B0FF00201B4965
:1007A000087000BF10BD10B51948006819490968E4
:1007B000401AFA2805D3164800681649086004F064
:1007C00007F91348006814490968401A41F2883152
:1007D00088420CD30E4800680F49086001F0FBFE08
:1007E0000A480078401C09490870FFF7B9FF10BD9E
:1007F000C0A8031EC0A8030118000020E72E0008AF
:1008000047250008E40000202900002028000020DF
:10081000000000202000002024000020094880471C
:1008200009480047FEE7FEE7FEE7FEE7FEE7FEE7D2
:10083000FEE7FEE7FEE7FEE704480549054A064BEA
:1008400070470000950500085101000818B200200B
:1008500018B8002018B4002018B4002010B50121E9
:10086000880301F0F8FC00214FF4804001F0F3FC14
:1008700010BD01B581B0002000900198009002E009
:100880000098401E009000980028F9D10CBD38B5A2
:1008900003460C46002100200090F748016901F052
:1008A0001C014FF4784000EAC32001434FF4F86084
:1008B00000EA8410014341F0020141F00101EE48D9
:1008C0004261016100BF0098401C0090EA48016944
:1008D00001F0010018B1E94D0098A842F3D3E74DAB
:1008E0000098A84201D1002038BD0120FCE718B5CE
:1008F00002460B46002100200090DF48016901F00C
:100900001C014FF4784000EAC22001434FF4F86024
:1009100000EA8310014321F0020141F00101D648B1
:10092000016100BF0098401C0090D348016901F0AC
:10093000010018B1D14C0098A042F3D3CF4C0098DD
:10094000A04201D1002018BDCB48406980B2FAE72F
:100950002DE9F04188B00446884600260025002095
:100960000790C74F0190C448056925F01C0502A8EF
:1009700001F076FB039FC348874205D3C2488742F4
:1009800002D245F0080509E0BF48874205D3BC48BC
:10099000874202D245F00C0500E000BFB648056171
:1009A0004FF4004200214046FFF771FF18B90020C4
:1009B00008B0BDE8F081B548FFF75BFF206801286B
:1009C0005AD140F21B3210214046FFF760FF00BFB2
:1009D0000198401C019001214046FFF788FF00F07C
:1009E000040018B9A54901988842F1D3A349019898
:1009F000884201D10020DBE7002001904FF48052B3
:100A000000214046FFF743FF08B90020D0E700BFB0
:100A10000198401C019001214046FFF768FF00F05B
:100A2000200018B9954901988842F1D3934901985B
:100A3000884201D10020BBE70020019005214046FB
:100A4000FFF755FF064606F4807010B906F0400027
:100A500018B14FF40060206201E00020206206F02F
:100A6000800010B906F4807018B14FF480406061C6
:100A700015E00020606112E0206AC0F3CF006169D8
:100A8000C1F34F0140EA010200214046FFF7FFFE9B
:100A900008B900208CE76FF07F40FFF7EAFE764848
:100AA00005687B480540D4E901010843E168084333
:100AB0002169084361690843A1690843E169084362
:100AC000216A0843616A0843A16A0843E16A08434E
:100AD000216B0843616B0843054367480560D4E90F
:100AE0000E010843216C0843616C0843A16C084364
:100AF000E16C0843216D0843616D08435E4948601D
:100B0000A06D8860E06DC860084685694FF6417049
:100B10000540B4F86010606E40EA0140A16E0843E1
:100B2000E16E0843216F0843616F08430543524853
:100B30008561D4E91E0108434F49C861554885695C
:100B400055480540D4E920010843D4F888100843EB
:100B5000D4F88C100843D4F890100843D4F89410BB
:100B60000843D4F898100843D4F89C100843D4F8EC
:100B7000A0100843054347488561D4E9290108438B
:100B8000D4F8AC100843D4F8B0100843D4F8B4102B
:100B900040EA8100D4F8B810084340F400003D4911
:100BA0000860012004E70021016041608160C160AC
:100BB000016141618161C161016241628162C16221
:100BC000016341638163C163402101642021416469
:100BD00000218164C164016541658165C16501666B
:100BE0008021416600218166C16601674167816796
:100BF000C1674FF08061C0F880104910C0F88410C0
:100C00004910C0F88810C910C0F88C100021C0F835
:100C10009010C0F89410C0F89810C0F89C10C0F85C
:100C2000A0104FF00071C0F8A4100021C0F8A81067
:100C30004FF40031C0F8AC104912C0F8B0100021D8
:100C4000C0F8B410C0F8B810704730B111498969C4
:100C500041F002010F4A916105E00E49896921F0D6
:100C600002010C4A91617047C0B10A49896941F497
:100C70000051084A916117E000800240FFFF040024
:100C800000879303002D3101C00E1602FFFF0F00F5
:100C90000F8120FF00900240233FDEF8F64989696A
:100CA00021F40051F44A9161704730B1F349096869
:100CB00041F00401F14A116005E0F049096821F0B2
:100CC0000401EE4A11607047EB48806940F48010DF
:100CD000E9498861704730B1E849096841F0080185
:100CE000E64A116005E0E549096821F00801E34A98
:100CF0001160704700B50120FFF7EDFFFFF7E4FF3B
:100D00000120FFF7D2FF0120FFF7AEFF0120FFF720
:100D10009CFF00BD10B503460A460021D848006874
:100D2000006800F0004008B1002010BD002105E07F
:100D3000585CD34C2468A4686054491C9142F7D392
:100D4000C2F30C00CE4C24686060CD480068006897
:100D500040F04050CA4C24682060C94800680068D0
:100D600040F00040C64C24682060C348406900F051
:100D7000040020B10420C04C606100206060C048C5
:100D80000068006800F4801028B1BD480068C068A1
:100D9000BB4C206014E0BA480068006800F4001002
:100DA00020B1B5480069B64C206009E0B24800683F
:100DB000C0F38404B248006810302044B04C206076
:100DC0000120B2E710B5024600210023AD480068BB
:100DD000006800F0004008B1002010BDA94800687C
:100DE000008800F40040E0B9A6480068008800F4DC
:100DF0008070B0B1A3480068008800F4007080B132
:100E0000A04800680068C0F30D40031F002105E002
:100E10009C4800688068405C5054491C9942F7D354
:100E200000E000234FF00040964C24682060924878
:100E3000406900F0800020B180208F4C606100206C
:100E4000A06090480068808800F4804028B18D48F8
:100E50000068C0688B4C206014E08A480068808875
:100E600000F4004020B18448C068864C206009E04E
:100E700081480068C0F38404824800681030204430
:100E8000804C20601846A8E701460868C0F30D4072
:100E9000704700B500227B480068006800F0004001
:100EA000B0B978480068008800F4004080B97548FF
:100EB0000068008800F4807050B1724800680088B3
:100EC00000F4007020B16F480068FFF7DDFF0246B4
:100ED000104600BD4FF000406A4909680860694843
:100EE0000068808800F4804028B166480068C068C7
:100EF0006449086014E063480068808800F400409A
:100F000020B15D48C0685F49086009E05A48006840
:100F1000C0F384015B4800681030084459490860F8
:100F2000704770B506460D46002400213046FFF795
:100F3000DEFC044615B144F4804402E04BF6FF7039
:100F40000440224600213046FFF7A1FC08B10120F1
:100F500070BD0020FCE700204849896901F00101CB
:100F600009B1012000E0002070474448806940F04A
:100F7000010042498861704730B14049896941F0B8
:100F800001013E4A916105E03C49896921F0010176
:100F90003A4A9161704701460020384A926B0A40F4
:100FA0000AB1012000E00020704701460020334ACA
:100FB000926B0A400AB1012000E00020704729B17D
:100FC0002E4AD26B82432D4BDA6304E02B4AD26B5C
:100FD00002432A4BDA63704710B50B794C7943EA28
:100FE0000422264B03441A64CB781B068C7843EA10
:100FF00004434C7843EA04230C7843EA04021F4B71
:1010000003445A6410BD02461C4B1344186C030A77
:101010004B710871194B1344586C030ECB70030CC1
:101020008B70030A4B700870704741B1134A024439
:10103000126C42F00042114B03441A6407E00F4A5D
:101040000244126C22F000420C4B03441A647047B5
:10105000082908D0094A0244126C42F08042074B2A
:1010600003441A6407E0054A0244126C22F08042ED
:10107000024B03441A647047009002400080024013
:101080002C00002030000020F94A0244126C22F0AB
:101090007C52F74B03441A64F54A0244126C0A432B
:1010A000F34B03441A64704730B50C4613460021D5
:1010B000F04D286000BF15E000EB01124FF48015E1
:1010C0001560C1EB411505EB811504EB0515956025
:1010D0005D1E8D4204D900EB01151035D56000E08E
:1010E000D060491C9942E7D3E34D286130BD70B50B
:1010F00004460D460020DF4E346000BF16E004EBCE
:101100000011C0EB401606EB801605EB06168E604C
:10111000C0EB401606EB801602EB0616CE605E1E94
:10112000864202D14FF400160E60401C9842E6D36E
:10113000D14E346170BD0246002013680B400BB1E4
:10114000012000E00020704701460878C0F3C3008A
:101150007047016841F000410160704721B10268A9
:1011600042F08042026003E0026822F080420260A6
:10117000704702680A430260704702680A430260CF
:10118000704721B1026822F00062026003E0026849
:1011900042F000620260704721B1026842F400121E
:1011A000026003E0026822F400120260704721B17D
:1011B000026842F48012026003E0026822F48012A6
:1011C0000260704721B1026822F08062026003E091
:1011D000026842F080620260704721B1026842F00A
:1011E0000072026003E0026822F000720260704741
:1011F00010B541EA024443682343436010BD30B553
:101200000C46134600219D4D286000BF18E000EBFE
:1012100001124FF00045156044F2F0555560C1EBE6
:10122000411505EB811504EB051595605D1E8D429A
:1012300004D900EB01151035D56000E0D060491CE1
:101240009942E4D38C4DE86030BD70B504460D463C
:1012500000218A4E346000BF1DE004EB01104FF006
:10126000004606604FF4BE664660C1EB411606EBD1
:10127000811605EB06168660C1EB411606EB81165A
:1012800002EB0616C6605E1E8E4203D1466846F427
:1012900000464660491C9942DFD3774EF46070BD2A
:1012A0000246002013680B400BB1012000E0002033
:1012B0007047016841F000410160704721B1426808
:1012C00022F00042426003E0426842F00042426085
:1012D000704721B1426842F40042426003E0426834
:1012E00022F400424260704721B1426842F48042D9
:1012F000426003E0426822F4804242607047024646
:1013000019B15068C0F30C4070479088C0F30C00CE
:10131000FAE75948006840F00100574908607047F3
:1013200000205549096801F0010109B1012000E0E0
:1013300000207047014600204F4A52690A400AB116
:10134000012000E0002070474B494861704701468A
:101350000020494A52690A400AB1012000E00020F9
:1013600070474549486170474348406900F00100B3
:1013700070474148406900F04000704700203E49F6
:10138000896901F4801109B1012000E00020704753
:1013900029B1394AD2690243374BDA6104E0364A4F
:1013A000D2698243344BDA61704701460020324AE9
:1013B000126A0A400AB1012000E0002070472E485E
:1013C000006AC0F34A4070472B48006A80B27047F9
:1013D0002948806C70472848C06C70472648006DCB
:1013E00070472548406D704700202349486070478A
:1013F00000202149886070471D48C06A40F00040C5
:101400001B49C86270470146002000BF04E051F844
:101410002020174B9A62401C0828F8D3704730B13F
:101420001349C96A41F40071114AD16205E01049BB
:10143000C96A21F400710E4AD1627047014600204A
:101440000B4AD26A0A400AB1012000E0002070472E
:1014500030B10749C96A41F00401054AD16205E08B
:101460000349C96A21F00401014AD16270470000B2
:10147000008002402C00002000900240300000203C
:1014800030B1FE49C96A41F00201FC4AD16205E06F
:10149000FA49C96A21F00201F84AD162704730B1B5
:1014A000F649C96A41F00101F44AD16205E0F34905
:1014B000C96A21F00101F14AD162704738B1F0499F
:1014C000096841F00801ED4AC2F8001106E0EC4954
:1014D000096821F00801E94AC2F80011704738B1E3
:1014E000E749096841F00401E44AC2F8001106E046
:1014F000E349096821F00401E04AC2F8001170478D
:1015000038B1DF49096821F00201DC4AC2F8001154
:1015100006E0DB49096841F00201D84AC2F800112F
:101520007047D748006840F00100D449C1F8000175
:10153000704700F0805292B120F0805039B1D04A0B
:101540000C3212688243CD4BC3F80C2117E0CC4A11
:101550000C3212680243C94BC3F80C210FE039B1B9
:10156000C74A103212688243C44BC3F8102106E008
:10157000C34A103212680243C04BC3F810217047AF
:101580000146002001F080526AB1BD4A121D126866
:101590000A4032B1BA4A0C3212680A400AB101203C
:1015A0000EE000200CE0B64A083212680A4032B160
:1015B000B34A0C3212680A400AB1012000E0002050
:1015C00070470146AD4808587047AE48006840F083
:1015D0002000AC4908607047AA48006840F010003D
:1015E000A84908607047A748006840F00800A5496E
:1015F00008607047A348006840F00400A1490860F3
:10160000704730B19F49096841F002019D4A11605D
:1016100005E09C49096821F002019A4A116070476F
:1016200030B19849096841F00101964A116005E01E
:101630009449096821F00101924A116070470146FE
:101640000020904A12680A400AB1012000E0002000
:1016500070478C49091D0860704710B5894B1033DD
:10166000196040EA0203874C1434236010BD854999
:10167000183108607047834A1C321060121D1160D7
:10168000704701467D4808587047F0B504460D463E
:1016900000207D4E34607D4E356000BF1DE004EBC0
:1016A00000114FF004760E60C0EB401606EB80167A
:1016B00002EB06168E605E1E864204D904EB00160D
:1016C0001036CE6000E0CC6005EB00178E68BE607F
:1016D00005EB0017CE68FE60401C9842DFD3461E23
:1016E00005EB061635606A4E3461F0BDF0B5044670
:1016F0000D460020674E3460674E356000BF20E025
:1017000004EB00114FF000460E6044F2F0564E60BC
:10171000C0EB401606EB801602EB06168E605E1ECE
:10172000864204D904EB00161036CE6000E0CC608F
:1017300005EB00178E68BE6005EB0017CE68FE60F3
:10174000401C9842DCD3461E05EB06163560504E11
:10175000F460F0BD70B505460B46002100244A48F0
:101760000068006800F0004008B1002070BD002152
:1017700005E0685C454E3668B6687054491C99426D
:10178000F7D3C3F30C00404E366870603E480068E3
:10179000006840F040503C4E366830603A4800687F
:1017A000006840F00040384E366830603848406984
:1017B00000F0040020B10420354E706100207060FC
:1017C00000BF641C30480068006800F4003018B99D
:1017D0004FF6FF708442F4D33048844201D1002098
:1017E000C4E729480068006820F40030264E3668B7
:1017F000306025480068806801C223480068C068DE
:10180000106021480068006800F48010A0B11F48F3
:101810000068C0681C4E30601C480068006828B131
:101820001A4800680068194E30603BE017480068AD
:101830001030164E306035E013480068006800F440
:10184000001040B1124800690F4E30601048006926
:101850000E4E306026E00E480068C0F384060A4849
:10186000006810303044084E306009480068C0F30A
:101870008406064800681030304411E000800240C1
:1018800000810240008702402C000020340000202C
:10189000009002403000002038000020FFFF0400CC
:1018A0003F4E3060012061E730B50346002200243E
:1018B0003C480068006800F0004008B1002030BDDE
:1018C00038480068008800F40040E0B935480068F6
:1018D000008800F48070B0B132480068008800F4DD
:1018E000007080B12F4800680068C0F30D40041FED
:1018F000002205E02C4800688068805C9854521CE7
:10190000A242F7D300E000242848406900F080009C
:1019100020B18020254D68610020A8602148006822
:10192000806801C11F480068C06808601D480068E1
:10193000006840F000401B4D2D6828601948006881
:10194000808800F48040A0B117480068C068154D39
:10195000286015480068006828B1134800680068CE
:10196000114D28601AE01048006810300E4D2860B4
:1019700014E00C480068808800F4004020B10B4857
:10198000C068084D286009E008480068C0F3840575
:101990000448006810302844024D286020468EE735
:1019A0003400002030000020380000200090024069
:1019B00031490143314A1160704770B5002100235D
:1019C0000F22C47804B32D4C246804F4E064C4F5F9
:1019D000E064210AC1F10403CA40447804FA03F127
:1019E0008478144021430901254C0678A1550478D8
:1019F00004F01F050124AC4005786D11AD0005F120
:101A0000E025C5F8004109E0047804F01F05012431
:101A1000AC401C4D0678761145F8264070BD1A4A38
:101A20000A400243154B1B1F1A60704739B1134A15
:101A3000121D12680243114B1B1D1A6006E00F4A6B
:101A4000121D126882430D4B1B1D1A60704704283B
:101A500008D14FF0E021096941F004014FF0E02284
:101A6000116107E04FF0E021096921F004014FF016
:101A7000E0221161704700000000FA050CED00E063
:101A800000E400E080E100E080FFFF1F10B50446A5
:101A9000CC48844208D10121042000F0E9FB002158
:101AA000042000F0E5FB46E0C748844208D101214C
:101AB000082000F0DDFB0021082000F0D9FB3AE00F
:101AC000C248844208D10121102000F0D1FB00213E
:101AD000102000F0CDFB2EE0BD48844208D101214A
:101AE000202000F0C5FB0021202000F0C1FB22E0F7
:101AF000B848844208D10121402000F0B9FB002100
:101B0000402000F0B5FB16E0B348844208D1012123
:101B1000802000F0ADFB0021802000F0A9FB0AE04E
:101B2000AE48844207D10121801500F0A1FB0021BD
:101B3000A01500F09DFB10BD10B50121084600F076
:101B400097FB0021012000F093FB10BD2DE9F0412F
:101B5000024600250026002000230024002791F8DB
:101B600003C00CF00F0591F803C00CF0100CBCF191
:101B7000000F03D091F802C04CEA050591F800C0AF
:101B8000BCF1000F31D0146800202BE04FF0010CA5
:101B90000CFA00F3B1F800C00CEA03069E4220D113
:101BA00083004FF00F0C0CFA03F7BC4305FA03FC5B
:101BB0004CEA040491F803C0BCF1280F06D14FF0A1
:101BC000010C0CFA00FCC2F814C00AE091F803C042
:101BD000BCF1480F05D14FF0010C0CFA00FCC2F823
:101BE00010C0401C0828D1D31460B1F800C0BCF16B
:101BF000FF0F34DD546800202EE000F1080C4FF098
:101C0000010808FA0CF3B1F800C00CEA03069E4282
:101C100021D183004FF00F0C0CFA03F7BC4305FAF7
:101C200003FC4CEA040491F803C0BCF1280F05D171
:101C300000F1080C08FA0CF8C2F8148091F803C0FF
:101C4000BCF1480F07D100F1080C4FF0010808FA69
:101C50000CF8C2F81080401C0828CED35460BDE8B0
:101C6000F0814FF6FF710180022181700421C17063
:101C700070470246002093680B400BB1012000E042
:101C8000002070470146886880B2704702460020F5
:101C9000D3680B400BB1012000E0002070470146E3
:101CA000C86880B2704701617047416170470AB1EE
:101CB000016100E041617047C16070474FF48032BC
:101CC0000A4382618161826182698269704702464A
:101CD0000020434B18684FF68073184040EA02100A
:101CE00008433F4B186070473E49C8617047F0B5E4
:101CF0000A46002300240021002500F00046B6F12A
:101D0000004F02D1364EF16901E0354E7168C0F3E3
:101D1000034583B200F44016B6F5401F08D121F008
:101D200070612F4E766826F070662D4F7E6012E04F
:101D300000F48016B6F5801F06D1032606FA05F4D6
:101D4000A14341F0706106E0460D360103FA06F644
:101D5000B14341F0706122B1460D360103FA06F637
:101D6000314300F00046B6F1004F02D11C4EF16144
:101D700001E01B4E7160F0BD30B500228B071C0FD7
:101D80000F2303FA04F2164B08338C1053F8243057
:101D90009343134C08348D1044F8253023468C109F
:101DA00053F824308C07240F00FA04F423430C4C1E
:101DB00008348D1044F8253030BD0A49DC31086004
:101DC0007047000000080140000C01400010014075
:101DD0000014014000180140001C01400020014097
:101DE0000000014000002042FB48006840F0010074
:101DF000F949086008464068F8490840F6494860D3
:101E000008460068F6490840F3490860084600683B
:101E100020F4802008600846406820F4FE004860F6
:101E20000846006820F0A05008604FF47F008860EA
:101E30000020C8627047E849096821F48031E64A09
:101E400011601146096821F480211160B0F5803FCE
:101E500003D0B0F5802F0ED106E0DF49096841F4C8
:101E60008031DD4A116007E0DB49096841F4A021B7
:101E7000D94A116000E000BF00BF704710B50146AD
:101E80000022002300204A11012A02D1D24C2368EB
:101E900006E0022A02D1D04C236A01E0CE4C636AEC
:101EA00001F01F02012494401C400CB1012000E00D
:101EB000002010BD38B5002000900024002500BF90
:101EC0003120FFF7DBFF05460098401C009000988A
:101ED000B0F5A06F01D0002DF2D03120FFF7CEFF7A
:101EE00008B1012400E00024204638BD014600204E
:101EF000B94A106820F0F80040EAC100106070474D
:101F0000B8490860704702460020B34B586820F477
:101F1000741042EA01031843AF4B58607047B1494F
:101F20000866704702460020AB4BD86AAE4B18409B
:101F300042EA01031843A84BD862704701460020CB
:101F4000A54AD06A20F0F0000843D06270470146ED
:101F50000020A14AD06A20F470600843D062704724
:101F6000A04988667047014600209B4AD06A20F449
:101F700070400843D06270479A490867704701462D
:101F80000020954A506820F00300084350607047D5
:101F90009148406800F00C007047014600208E4ACE
:101FA000506820F0F0000843506070470146002060
:101FB000894A506820F4E060084350607047014649
:101FC0000020854A506820F4605040EAC10050600B
:101FD000704729B1804A527A02437F4B5A7204E01B
:101FE0007D4A527A82437C4B5A7270477D49D83180
:101FF0000860704701460020774A506820F440404E
:102000000843506070477949086070477749091D57
:10201000086070470021704A203211706E4A82F8C1
:102020002010012802D004280AD104E001216A4AC4
:102030002032117005E00521674A2032117000E05E
:1020400000BF00BF70476A49086070476249096A6B
:102050000143614A1162704765494439086070471D
:102060002DE9F04100210022002500230026002454
:1020700000278C46DFF86081D8F8048008F00C0156
:1020800021B1042907D0082959D109E0DFF864817A
:10209000C0F8008058E0DFF86081C0F8008053E0AD
:1020A000DFF83481D8F8048008F47012DFF8288152
:1020B000D8F8048008F48035920C0D2A01D0921CC7
:1020C00000E0062235B9DFF8348102FB08F8C0F8D9
:1020D000008033E0DFF80081D8F82C8008F48036E7
:1020E000DFF8F480D8F82C8008F00F0808F101041C
:1020F00046B9DFF80481B8FBF4F808FB02F8C0F831
:1021000000801BE0DFF8D080D8F82C80C8F30318DB
:1021100008F10107DFF8C080D8F82C80C8F3032845
:1021200008F1020CDFF8D080B8FBF7F808FB0CF8D8
:10213000B8FBF4F808FB02F8C0F8008004E0DFF810
:10214000B480C0F8008000BF00BFDFF88C80D8F8F2
:10215000048008F0F0010909DFF8A48018F80130C4
:10216000D0F8008028FA03F8C0F80480DFF868800F
:10217000D8F8048008F4E061090ADFF8848018F8D0
:102180000130D0F8048028FA03F8C0F80880DFF89E
:102190004880D8F8048008F46051C90ADFF86080EC
:1021A00018F80130D0F8048028FA03F8C0F80C8041
:1021B000DFF82480D8F8048008F44041890BDFF868
:1021C000448018F80130D0F80C80B8FBF3F8C0F860
:1021D0001080BDE8F0810000001002400000FFF018
:1021E000FFFFF6FE00004242F0FFFEFFC405424240
:1021F0008004424200127A0040787D0100093D00CF
:102200003C0000204C00002029B1354A52690243AD
:10221000334B5A6104E0324A52698243304B5A616F
:10222000704729B12E4A926902432D4B9A6104E00E
:102230002B4A926982432A4B9A61704729B1284AF6
:10224000D2690243264BDA6104E0254AD26982430F
:10225000234BDA61704729B1214A926A0243204B2D
:102260009A6204E01E4A926A82431D4B9A6270474A
:1022700029B11B4AD2680243194BDA6004E0184ABC
:10228000D2688243164BDA60704729B1144A12694A
:102290000243134B1A6104E0114A12698243104B46
:1022A0001A6170470F49086070470F49C86470474A
:1022B0000B49C87170470A48406A40F0807008496D
:1022C0004862704701460020054A92680A400AB1F8
:1022D000012000E00020704701498872704700002B
:1022E00000100240400442420000424270B50446E1
:1022F000062084F822009F48007884F823009D4837
:102300004178242001559B48817825200155994822
:10231000C178262001559748017927200155954815
:1023200041792820015540F2DC502084322084F885
:102330002900052290499148FEF7B6FE05229049F2
:102340009048FEF75CFF002507E08E4901EB051081
:102350000121FEF7B3FF681CC5B2052DF5DB002592
:1023600008E0864901EB05104FF44001FEF705FF38
:10237000681CC5B2052DF4DBFEF7BCFC70BD014640
:1023800081480068006800F0004008B100207047F4
:10239000C1F30C007C4A126850607B4800680068FA
:1023A00040F04050784A1268106077480068006832
:1023B00040F00040744A126810607448406900F0B0
:1023C000040020B10420714A5061002050606E4822
:1023D0000068C0686C4A10600120D8E76A4800684D
:1023E000806870472DE9F04180460E460025FFF7D2
:1023F000F5FF0746344607E062897819616806F000
:102400009AFA608905442468002CF5D1A8B2FFF738
:10241000B6FF0020BDE8F0811EB500210022009229
:10242000019202925A4A1268126802F0004282B186
:1024300000220092554A526902F0800222B18022A5
:10244000524B5A6100229A609DE81C0080E81C00F3
:102450001EBD4F4A1268128802F40042B2B94C4ABB
:102460001268128802F4807282B1494A1268128896
:1024700002F4007252B1464A12681268C2F30D4269
:10248000111F434A12689268019200E000210091F6
:102490003F4A126802923E4A1268D2683C4B1A6068
:1024A0009DE81C0080E81C0000BFD1E72DE9F04347
:1024B00087B081460026002501A8FFF7ADFF01A8DF
:1024C00007C804AB07C3049887B2DDF81480032261
:1024D0003946104601F085F9054665B12C4608E0FD
:1024E000628908EB0601606806F025FA60890644F7
:1024F0002468002CF4D14FF000400699086023486E
:10250000406900F0800020B180202049486100200F
:102510008860284607B0BDE8F08370B504462046C1
:10252000FFF7C4FF064616B94FF0FF3070BD2146D5
:1025300030462269904705461DB1304601F0F4F857
:1025400000262846F2E710B5044600BF0CB900BFCC
:1025500000BF00BF652084F82A006E212B200155A2
:102560000C4860610C48A0612046FFF7BFFE0020C8
:1025700010BD000018000020641F0020640100202E
:10258000B4010020140100202C0000200090024023
:10259000300000209B2D0008E523000810B50446FC
:1025A00004EB8400F74951F8200060B104EB84018A
:1025B000F44A52F8210001F0B7F8002004EB84013E
:1025C000F04A42F82100002004EB8401ED4A02EBBE
:1025D0008101887410BD70B500243DE004EB8400D7
:1025E000E84901EB8000857C25B304EB840001EB16
:1025F0008000C07C401C04EB8401E24A02EB8101B4
:10260000C87404EB8400114601EB8000C07CF02804
:102610000DDA04EB840001EB8000807C01280AD1F4
:1026200004EB840001EB8000C07C022803DB204621
:10263000FFF7B4FF0EE004EB8400D24901EB800009
:10264000807C032806D1022004EB8401CD4A02EBF2
:1026500081018874601CC4B20A2CBFDB70BD2DE9F7
:10266000FC5F05460F464FF00A08C1460A260024C3
:10267000A34600200190B246009000BF62E004EB48
:102680008400C04A02EB8000817C0A2E02D109B985
:1026900066B255E0002953D000BF012903D00229BA
:1026A00001DA00BF00BF00BF5DB104EB8402B54B8F
:1026B00003EB820228685268904202D160B2BDE802
:1026C000FC9F012928D104EB8400AE4A52F8200077
:1026D00088B104EB840002EB8000C27C0098824247
:1026E0002EDB4FFA84FA04EB8400A64A02EB80004A
:1026F000C07C009024E004EB8400A24A02EB80003E
:10270000C07C58451CDB4FFA84F804EB840002EBD4
:10271000800090F813B013E0022911DB04EB840071
:10272000984A02EB8000C27C0198824208DB4FFA93
:1027300084F904EB8400934A02EB8000C07C019092
:10274000601CC4B20A2C9ADB07F0020020B90A2EE2
:1027500005D107F0010010B94FF0FF30AFE70A2EA6
:1027600001DAF4B226E0B9F10A0F0BDA09F0FF043E
:1027700000BF04EB8400834951F8200008B100BF7A
:1027800000BF0EE0B8F10A0F02DA08F0FF0408E01B
:10279000BAF10A0F02DA0AF0FF0402E04FF0FF304C
:1027A0008DE700BF0A2C01DB00BF00BF00BF204641
:1027B000FFF7F4FE00BF0A2C01DB00BF00BF00BF23
:1027C00000BF04EB84006F4901EB8000807C08B1FE
:1027D00000BF00BF00BF35B104EB8401694A02EBC2
:1027E000810128684860002004EB8401654A02EBFF
:1027F0008101C87460B262E72DE9F04104460E46DB
:1028000017469846756800BF94F82200062801D044
:1028100000BF00BF00BFD8F800002860B8F804006F
:10282000A8803868C5F80600B88868810820A881A3
:1028300031462046A2699047BDE8F0812DE9F04776
:1028400006460D461746984600BF96F82200062811
:1028500001D000BF00BF00BF5DB1286848B131465C
:10286000286805F01FFB20B9287800F0F000E02868
:1028700003D16FF00D00BDE8F08741462846FFF711
:10288000EEFE0446002C01DA2046F4E7022004EBB9
:1028900084013C4A02EB8101887404EB84001146F8
:1028A00001EB8000866004EB840001EB8000396856
:1028B000C160B9880182002004EB840102EB810130
:1028C000C87404EB8400114651F8200098B104EB61
:1028D000840051F82090002004EB840142F821008C
:1028E0003B4606F1230249463046FFF785FF48463E
:1028F00000F01AFF00BF0020BDE770B505460024B8
:1029000012E004EB84001F4901EB8000867C4EB18D
:1029100004EB840001EB80008068A84202D12046CD
:10292000FFF73CFE601CC4B20A2CEADB70BD2DE947
:10293000F04180460F4615461E4600BF05B10EB950
:1029400000BF00BF00BF02213846FFF788FE0446E3
:10295000002C19DB04EB84000A4901EB8000807C29
:10296000022811DB04EB840001EB80000C302860AE
:1029700004EB840001EB8000001D30602046BDE8C0
:10298000F0810000143D00204FF0FF30F7E72DE903
:10299000FC4705468846164600BF1DB900BF00BF6C
:1029A000BDE8FC8700BF70892A2803DA304600F0B2
:1029B000BBFEF5E7776807F10E042088B0F5807F4D
:1029C00008D12079062805D16079042802D16088D1
:1029D000082803D0304600F0A7FEE1E7D4F80E0047
:1029E0000190A0690090281D08B1686810B94FF0E7
:1029F000000907E000986968884201D1012000E0E1
:102A000000208146B9F1000F01D0012000E0022032
:102A1000034604F1080201A92846FFF70FFFE088EA
:102A2000B0F5807F03D0B0F5007F33D131E0B9F14C
:102A3000000F2CD0022000F0B9FAE080D4F80E008C
:102A4000A0616868C4F80E0000BF95F8220006284F
:102A500001D000BF00BF00BFA068C4F81200A08969
:102A6000E082A0683860A089B880D8F80000A06033
:102A7000B8F80400A081D8F80000C7F80600B8F83C
:102A80000400788131462846AA69904700E000BFDB
:102A900001E000E000BF00BF304600F045FE00BF8F
:102AA0007EE72DE9F84F0746884691469A46DDF8BD
:102AB00028B00020009000BF0FB900BF00BF00BFCA
:102AC00000222A21032000F08CFE05461DB94FF09C
:102AD000FF30BDE8F88F00BF68892A2801DA00BFFF
:102AE00000BF00BF6E6806F10E040D9800F05EFA9C
:102AF000E08000BF97F82200062801D000BF00BF89
:102B000000BFDAF80000A060BAF80400A0810B98BA
:102B10000168C4F812108088E082D9F800003060A3
:102B2000B9F80400B080D8F80000C6F80600B8F87C
:102B300004007081DBF80000C4F80E000C980068F7
:102B4000A0614FF4807020800820608006202071F2
:102B5000042060714FF4C160B08129463846BA69DB
:102B600090470090284600F0DFFD00250098B0E770
:102B70007FB504460D460121FA4A201D04F12303C6
:102B80008DE825000391F84A19462046FFF789FF92
:102B900004B070BD70B505460E46144600BF04EB88
:102BA0008400F24901EB8000807C022801DA00BF3A
:102BB00000BF00BF04EB8400EC4901EB8000807C87
:102BC000022817D104EB840001EB8000C07CE428CC
:102BD00010DB04EB84000A4602EB8000011D28464E
:102BE000FFF7C6FF30B9032004EB8401DF4A02EB94
:102BF0008101887404EB8400DC4901EB800000F162
:102C00000C0305F1230231462846FFF7F5FD70BDA0
:102C10002DE9F05F80460F46164608F123094FF074
:102C2000FF3A4146386805F03DF938B9387800F088
:102C3000F000E02802D00FB1386818B96FF00D002D
:102C4000BDE8F09F01213846FFF709FD0446002C3E
:102C500001DA2046F4E704EB8400C44901EB80006C
:102C6000807C30B9012004EB8401C04A02EB810171
:102C7000887400BF04EB8400BC4901EB8000807CB9
:102C8000012808D004EB840001EB8000807C02283E
:102C900001DA00BF00BF00BF04EB8400B34901EBC1
:102CA0008000807C012800D03EB939464046FFF7BD
:102CB0005FFF82460EB95046C2E700BF0EB900BFA3
:102CC00000BF00BF04EB8400A84901EB8000807CBA
:102CD00002280FDBA6490C7004EB8400A34901EB2A
:102CE000800000F10C034A4631464046FFF784FD60
:102CF000824650E004EB84009C4901EB8000807C1C
:102D0000012848D14FF0000B354610E000BF68891C
:102D10002989884203D1286808B100BF00BF00BFDD
:102D2000287B012802D04FF0010B02E02D68002D16
:102D3000ECD100BFBBF1000F10D029890022032085
:102D400000F04FFD05466DB13146284600F08BFF7F
:102D500040B1284600F0E8FC002503E0354628464F
:102D600000F01FFFA5B104EB8400804951F820005A
:102D700030B104EB84017D4A52F8210000F0D4FC0C
:102D800004EB8400794941F820504FF0000A01E03B
:102D90004FF0FF3A00BF504652E72DE9FC4704468A
:102DA0000F461546A94600BF0CB900BF00BF00BFC3
:102DB00000BF0FB900BF00BF00BF00BF0DB900BF0B
:102DC00000BF00BF0E21384600F09CFE18B16FF026
:102DD0000100BDE8FC872146286805F063F810B1C2
:102DE000DFF8848177E0287800F0F000E02815D142
:102DF00001208DF8000000208DF801005E208DF884
:102E00000200687800F07F008DF80300A8788DF844
:102E10000400E8788DF80500E8465BE02868A168C2
:102E20000840D4E901121140884210D0288880B2AD
:102E30004FF6A96188420AD004F10C0020B1E06885
:102E400010B104F10C0902E06FF00300C1E748483B
:102E5000007800EB8000454901EB8000807C02286F
:102E600012DB4349097801EB8101404A02EB810101
:102E7000D9F800004968884206D13D4802783946B1
:102E80002046FFF787FEA4E700261BE006EB86003E
:102E9000364901EB8000807C022811DB06EB8601BD
:102EA000324A02EB8101D9F800004968884207D113
:102EB0002F490E70F2B239462046FFF76BFE88E7C5
:102EC000701C46B20A2EE1DB3A4649462046FFF71F
:102ED0009FFE7EE700BF434604F1230239462046A9
:102EE000FFF78AFC75E72DE9F04104460E464FF0E6
:102EF0000E0860890E2800DC53E06568AF892878E9
:102F000000F00100B0B12878012809D1687888B9AB
:102F1000A8785E280ED1607B40F01000607309E055
:102F200006221149284605F0BBFC18B9607B40F029
:102F300008006073082F03D0B7F5C16F2CD11EE0D5
:102F400096F8290000F0200000B92AE0C8F100003E
:102F500001B2204600F0D6FD60B100BF00BF00BF47
:102F600000BF1EE0308B00082A8B0008143D0020B3
:102F7000500000203146204604F03EFE0DE096F859
:102F8000290000F0200000B90BE0224606F12301E1
:102F90003046FFF7FCFC00E003E000BF0020BDE886
:102FA000F081204600F0C0FB0020F8E7014608064B
:102FB000000C40EA1120704700B502461046FFF7AA
:102FC000F5FF00BD0146080601F47F4240EA0220F9
:102FD00001F47F0240EA122040EA1160704700B518
:102FE00003461846FFF7EEFF00BD10B500F060F88D
:102FF00000F0FCF900F05AFA04F07CF901F0BEF898
:1030000004F0F4F810BD000030B500BFF34B1B68AE
:10301000984201D200BF00BF00BF00BFF04B1B6849
:10302000984201D300BF00BF00BF00BF03790BB1BE
:1030300000BF00BF00BF00BF0388B3F57A5F01DDAA
:1030400000BF00BF00BF0388E44C24681919884200
:1030500015D00B799BB9E24B1B6899420FD0E14B1D
:103060001B688B4201D1DF4B18600B880380DB4B60
:103070001B88C31A0C88D94D2D682C446380438863
:10308000D64C24681A19824211D013797BB9D54BDA
:103090001B68834201D1D34B1A6003881380CF4B46
:1030A0001B88D31A0488CD4D2D682C44638030BD15
:1030B00000BF00BFCC4921F00301C84A116011468E
:1030C00008684FF47A510180002141800171114656
:1030D000096801F57A51C24A116001211268117123
:1030E0004FF47A51BE4A12681180BD4A126851806D
:1030F000BA490968BB4A1160704770B5044604B903
:1031000070BD00BF04F0030008B100BF00BF00BFE6
:1031100000BFB2480068844203D3B14800688442CB
:1031200001D300BF00BF00BFAC480068844203D396
:10313000AB480068844200D3E2E7A4F1080500BF71
:10314000287908B900BF00BF00BF00202871A5483A
:103150000068854201D2A34805602846FFF754FF66
:1031600000BFCDE72DE9F04105460A46D01C20F00E
:10317000030082B20C2A00DA0C22B2F57A5F02DD7B
:103180000020BDE8F08100BF94480068854203D369
:1031900093480068854201D300BF00BF00BF8F483D
:1031A0000068854203D38E480068854201D32846D3
:1031B000E7E7A5F1080489480088201A86B220882C
:1031C000801B083887B200BFBA4201DD00BF00BFD4
:1031D00000BFBA4201DD0020D3E7BA4201D1284640
:1031E000CFE72088DFF8F4C1DCF800C000EB0C0169
:1031F000087980BB088806F1080C94441FFA8CF308
:10320000DFF8E0C1DCF800C08C4508D1DFF8CCC1A4
:10321000DCF800C09C44DFF8CC81C8F800C0DFF8BF
:10322000BCC1DCF800C00CEB03014FF0000C81F8CE
:1032300004C008804E802380B1F800C0BCF57A5FDE
:1032400008D0B1F800C0DFF89481D8F80080C444F9
:10325000ACF8023022E0FFE702F11400B8421DD8BA
:1032600006F10800104483B25C480068C1185D484C
:103270000068814201D25B4801600020087120880B
:1032800008804E8023800888B0F57A5F06D00888D1
:10329000DFF848C1DCF800C060444380284670E78E
:1032A000F0B502460AB90020F0BDD01C20F00300A2
:1032B00082B20C2A00DA0C22B2F57A5F01DD00201E
:1032C000F2E748480088454E3688801B83B26EE09E
:1032D00042480068C1180879002865D10E8803F1BA
:1032E0000800301A90425FD30E8803F10800361AA6
:1032F00002F11400864218D303F10800104485B28D
:1033000036480068441900202071088820806380B6
:103310000D80012008712088B0F57A5F07D02088E1
:103320002E4E36683044458001E0012008712D485A
:10333000006881421CD12B4E306803E00688274F7D
:103340003F68F01906791EB1254E3668B042F5D1B6
:10335000244E306000BF3668214F3F68BE4205D022
:10336000204E366836790EB100BF00BF00BF00BFE7
:1033700000BF01F108001044194E3668B04201D96F
:1033800000BF00BF00BF00BF01F0030008B100BFD5
:1033900000BF00BF00BF01F0030008B100BF00BFC5
:1033A00000BF01F108007FE70C480068C35AC2F56E
:1033B0007A5098428CDC002076E770B504460D46C2
:1033C00004FB05F188B2FFF76BFF064626B104FB4C
:1033D00005F1304605F0F4FA304670BD5400002087
:1033E000580000205C000020DF3D002010B50020C8
:1033F00001E0431C98B20A28FBDB284B23F00301B1
:10340000002019E00023264C44F8203000220CE074
:10341000234B53F820300B60214B43F82010214BF5
:1034200033F810301944531C9AB21F4B33F8103044
:103430009342EDDC431C98B20A28E3DB10BD024640
:1034400000BF0A2A03DB00BF00BF0020704700BF97
:10345000134850F8221059B1114B086843F8220064
:1034600000BF01F0030008B100BF00BF00BF00BFF4
:103470000846EBE701B9704700BF01F003030BB149
:1034800000BF00BF00BF0A46054B53F82030136051
:10349000034B43F8202000BFEDE700009B7C002099
:1034A000707C0020368B00084A8B0008704709B9F1
:1034B000002200E00A68C260704709B9002200E0FB
:1034C0000A68826070472DE9F04107460C4654B304
:1034D00020687968884201D1012000E0002010BBFB
:1034E0008C4806680BE030687968884206D1D6F8C7
:1034F0000C80304601F006FB464600E0F668002EE0
:10350000F1D1854805680CE055B1286840B12868BC
:103510007968884204D10CB9002000E02068286056
:10352000ED68002DF0D10CB9002000E02068786033
:10353000BDE8F0812DE9F04106460F4614461D46D0
:1035400039463046FFF7BFFF21463046FFF7B5FF4B
:1035500029463046FFF7ABFFBDE8F0812DE9F04783
:1035600004460E4617469846DDE9095ADDF82090D4
:1035700000BF0DB900BF00BF00BF00206060A060A9
:10358000E06084F82900C4F81C906448007884F84E
:103590002C0062480078401C60490870C4F810A0F4
:1035A00043463A4631462046FFF7C4FF2046A84727
:1035B00010B10020BDE8F0875948006820605848E5
:1035C00004602046F6E757490860704710B5044686
:1035D00094F8290000F0010060B114F8290F20F0E0
:1035E0000100207014F8290900F0200010B12046D5
:1035F000FFF783F910BD10B5044604B910BD94F867
:10360000290000F0010010B12046FFF7DFFF444819
:103610000068A04203D14249206808600FE0404999
:10362000086806E00168A14202D12168016002E059
:1036300000680028F6D100BF00B9DFE700BF3948B5
:103640000068A04202D10020FFF7BDFF00BFD5E710
:1036500010B502460AB9002010BD90783038C3B2C8
:103660002F48016810E091F82C0098420BD1107897
:1036700091F82A40A04206D154782B20405C844225
:1036800001D10846E8E709680029ECD10020E3E70A
:1036900010B5044694F8290000F0010090B914F820
:1036A000290F40F00100207014F8290900F01000E3
:1036B00040B194F8290000F0200018B1211D2046E7
:1036C000FFF756FA10BD10B5044694F8290000F033
:1036D000100090B914F8290F40F01000207014F871
:1036E000290900F0010040B194F8290000F0200001
:1036F00018B1211D2046FFF73BFA10BD90F82910A4
:1037000001F0100129B190F8291021F0100180F882
:1037100029107047800000207C00002068000020F5
:1037200060000020640000202DE9F04704463CB909
:1037300000BF0CB900BF00BF00BF0020BDE8F0878C
:1037400000BF207B50B1207B012807D0207B0228BE
:1037500004D0207B032801D000BF00BF00BF00269B
:103760003BE000BFE089002801DC00BF00BF00BFD4
:10377000E089401E1FFA80F8A4F80E80B8F1000F0F
:1037800029D12768257B607B00F0020060B1A1464B
:1037900000BFD9F8100008B900BF00BF00BF204625
:1037A000D9F81010884712E0032D04D121460920D2
:1037B000FFF760FE0BE0012D01D0022D04D1214660
:1037C0000820FFF757FE02E02046FFF796FC701C2A
:1037D000C6B23C4600E0002400BF002CC1D13046F8
:1037E000ACE72DE9F05F83460F469146BBF1000F31
:1037F00009D0BBF1010F08D0BBF1020F07D0BBF11C
:10380000030F08D105E036260CE022260AE00E263A
:1038100008E0002606E000BF00BF00BF00BF002098
:10382000BDE8F09F00BFB9F1000F72D0B9F1010FF0
:1038300070D0B9F1020F6ED0B9F1030F6CD109202D
:10384000FFF7FDFD04460CB90020E9E784F80C9071
:103850000020206006F110002044C01C20F003006E
:10386000606000BF207900F0030008B100BF00BF16
:1038700000BF2781F01C20F00300C0F50070B842A3
:1038800001DD384604E0F01C20F00300C0F50070B4
:10389000608100BF61896068014404F50470814261
:1038A00001D900BF00BF00BF00BFF01C20F0030023
:1038B000C0F50070002801DC00BF00BF00BF012080
:1038C000E081A2466089A7EB000845E00920FFF7E8
:1038D000B6FD054625B92046FFF726FF00209FE7E5
:1038E00085F80C90002068732860CAF8005000BF6B
:1038F0004FF6FF70804501DB00BF00BF00BFA5F899
:1039000008801FFA88F0B0F5007F06DA1FFA88F009
:1039100005E025E049E049E057E04FF40070688198
:1039200005F11000686000BF287900F0030008B1BD
:1039300000BF00BF00BF00BF61896068014404F59B
:103940000470814201D900BF00BF00BF0120E8819F
:103950006889A8EB0008AA46B8F1000FB6DC3AE087
:1039600006F1130121F00302F91C21F003011144B7
:1039700088B2FFF795FC04460CB9002050E704F12B
:1039800010003044C01C20F0030060602781678174
:103990000020206084F80C9000BF207900F0030024
:1039A00008B100BF00BF00BF15E000BF0820FFF74F
:1039B00046FD04460CB9002032E7002060602781F4
:1039C0006781206084F80C9005E000BF00BF00BF55
:1039D00000BF002024E700BF0120E08100206073C9
:1039E00020461DE7F0B505460C46DDE9056735B113
:1039F000012D06D0022D06D0032D08D105E0362179
:103A00000BE0222109E00E2107E0002105E000BFC4
:103A100000BF00BF00BF0020F0BD00BFC81C20F0E9
:103A200003002044B84201DD0020F5E700201860C3
:103A30002EB1C81C20F003003044586001E0002083
:103A40005860022058731C815C811A730120D88150
:103A50001846E1E72DE9F04105460F4600BF0DB9D4
:103A600000BF00BF00BF00BF287B032809D0287B10
:103A7000012806D0287B20B1287B022801D000BF76
:103A800000BF00BF2889B84201DCBDE8F081288969
:103A9000A7EB00083E462C4613E06089301A86B238
:103AA00000BF4FF6FF70804501DB00BF00BF00BFC5
:103AB000208940442081246800BF0CB900BF00BFAA
:103AC00000BF6089B042E8DB207B78B96089B042F2
:103AD0000CD0A088001B304481B22046FFF742FB87
:103AE000044600BF0CB900BF00BF00BF66816089FB
:103AF0002081206810B12068FFF716FE00202060AA
:103B000000BFC2E770B5024600BF0AB900BF00BFE0
:103B100000BF01B10AB9002070BD00290ADA48428D
:103B200084B200BF5089A04203DA00BF00BF012069
:103B3000F2E700E08CB2137B55680BB1032B0AD17E
:103B40005068401A506002F110005668864217D241
:103B500055600120E0E7022B01D0012B0AD100299A
:103B600006DA5089A04203DB5068401A506007E033
:103B70000120D1E700BF00BF00BF00BF0120CBE79D
:103B80005089084450811089084410810020C3E7FF
:103B90000146002002E0421CD0B209680029FAD197
:103BA000704710B1C189491CC181704710B50246E8
:103BB00000BF02B111B900BF00BF10BD00BF104669
:103BC00004E003890C892344038100680368002B07
:103BD000F7D100BF03894489A34201D000BF00BFD1
:103BE00000BF00BF03680BB100BF00BF00BF038967
:103BF0000C8923440381016000BFDEE730B5054630
:103C00000C4621462846FFF7D1FF2046FFF7C9FFA3
:103C100030BD70B5044601262568B5B100BF2089C6
:103C20006189401A2989884201D000BF00BF00BFC6
:103C300020896189401A28810020206060892081C4
:103C40002846FFF771FD064600BF00BF2089618945
:103C5000884201D000BF00BF00BF002E01DD002060
:103C600070BD2846FCE72DE9F04105460C460026CC
:103C7000002700BF25B11CB128892189884205DAB7
:103C800000BF00BF6FF00D00BDE8F08100BF00BFB6
:103C90006889801B6189C91B884204DB6089C01B5D
:103CA0001FFA80F803E06889801B1FFA80F86268B9
:103CB000D1196A689019424604F03DFE06EB0800EF
:103CC00086B207EB080087B200BF6889B04201DA0C
:103CD00000BF00BF00BF00BF6089B84201DA00BF6B
:103CE00000BF00BF6089B84201DC002724686889F2
:103CF000B0420AD100262D6800BF2DB924B100BF03
:103D000000BF6FF00D00BFE700BF64B1608921897B
:103D1000884208D100BF206820B100BF00BF6FF00B
:103D20000500B1E700BF65B168892989884208D1DB
:103D300000BF286820B100BF00BF6FF00500A3E7F7
:103D400000BF002CA4D100209EE72DE9F05F804643
:103D5000894616461D464FF0000B00BFB8F1000F14
:103D600004D100BF00BF0020BDE8F09F00BF00BF2E
:103D7000B9F1000F03D100BF00BF0020F4E700BF7E
:103D80004FF0000AB8F1000F02D0B9F1000F01D1D5
:103D90000020E9E7444620E035B16089A84203DC11
:103DA0006089281A85B217E06089401B87B2B74244
:103DB00000DD37466268511909EB0A003A4604F003
:103DC000BAFD0BEB07001FFA80FB0AEB07001FFA96
:103DD00080FAF01B86B2002524680EB1002CDBD1DE
:103DE0005846C1E72DE9F04705460F46904646463E
:103DF0004FF0000A00BF25B900BF00BF0020BDE89A
:103E0000F08700BF00BF1FB900BF00BF0020F6E76A
:103E100000BF1DB117B12889404502DA6FF00D00CF
:103E2000EDE72C4618E000BF0CB900BF00BF00BF93
:103E3000B1466089484501DAB4F80A9007EB0A01F7
:103E40004A46606804F077FDA6EB090086B20AEBEB
:103E500009001FFA80FA2468002EE4D100BF0EB9D1
:103E6000C24501D000BF00BF00BF0020C7E72DE959
:103E7000F04104460F46206810B92046BDE8F081A5
:103E8000218900223846FFF7ACFC05460DB92046D3
:103E9000F4E721462846FFF7E6FE064600BF0EB1CE
:103EA00000BF00BF00BF2046FFF73EFC2846E5E705
:103EB00010B503460C462246194603E04889101AFD
:103EC00082B2096811B148899042F7DD29B1488969
:103ED000904202DD4868805C10BD0020FCE72DE9BF
:103EE000F84F0746884691469A4646463C4603E0C8
:103EF0006089301A86B2246814B16089B042F7DD57
:103F0000D4B16089B04217DD002511E0701981B28B
:103F10002046FFF7CDFF834619F805000090009872
:103F2000834503D0681C80B2BDE8F88F681C85B259
:103F30005545EBDB0020F7E74FF6FF70F4E72DE97E
:103F4000F0470646884615461F463089401B1FFA33
:103F500080FA3089E919884214DB3C4610E02B4690
:103F6000424621463046FFF7BAFF8146B9F1000FBD
:103F700002D12046BDE8F08704EB090084B200BFFF
:103F80005445ECDD4FF6FF70F4E770B506460C467D
:103F900034B1207820B130894FF6FF71884202D1C8
:103FA0004FF6FF7070BD204604F0A6FC05464FF6A4
:103FB000FF70854200D3F5E7AAB2002321463046C0
:103FC000FFF7BDFFEEE700002DE9F04705468A4602
:103FD0000027D5F8048098F8099000266448046802
:103FE0001FE0207C48451AD134B1206820B16149D6
:103FF00020680968884212D1606980B15E4B2A4608
:104000002146D4E905C0E04748B10025012736B173
:10401000E068F06056480068E06055480460264655
:10402000E4680FB9002CDCD13846BDE8F0870246C1
:1040300009B9002000E008681060002070470246BF
:1040400009B9002000E00868506000207047416115
:10405000826170472DE9FE4F04460D4691461421BA
:104060002846FFF74FFD88B1002211460120FFF7D7
:10407000B8FB06461EB94FF0FF30BDE8FE8F288919
:1040800090B129463046FFF7B9FD0DE02E466FF09E
:1040900013013046FFF736FD30B100BF00BF00BF4F
:1040A00000BF4FF0FF30E8E7484603F07FFD070010
:1040B00007D1AE4202D03046FFF736FB6FF0030067
:1040C000DBE70CB1206810B907F1040800E0A04656
:1040D000207C617ACDE901070091A37A4A464146E6
:1040E000304603F045FE8246AE4202D03046FFF72E
:1040F0001BFB5046C1E770B504460D46221D2946FC
:104100002046FFF7A7FF70BD70B505461848006848
:10411000A84205D116480068C068154908600CE03F
:104120001348046807E0E06820B1E068A84201D1C4
:10413000E868E060E468002CF5D129460020FFF72C
:1041400099F970BD70B505460020FFF778F904466F
:104150005CB11C21204604F055FC2574FF20A072A0
:1041600003480068E06002480460204670BD00001B
:104170006C000020D4000020D0000020704710B553
:10418000044644B1606810B16068FFF7CDFA21467B
:104190000420FFF76FF910BD70B5044605E02568EF
:1041A0002046FFF7ECFF2C4600BF002CF7D170BD76
:1041B00010B50446207ED0B1207E0A2817D0207E7C
:1041C000012814D0606F20B1606FFFF7ADFA0020B6
:1041D00060674FF0FF30A086E06EFFF7DDFF206FD5
:1041E000FFF7DAFF0020E0662067A4F86A0010BD40
:1041F0002DE9FE4F00200290FE480068401CFD495A
:104200000860FD480078401CFB49087000BF00258D
:10421000FA48046861E100BF207E08B900BF00BF12
:1042200000BF00BF207E012801D100BF00BF00BF3A
:1042300000BF207E0A2801D100BF00BF00BF94F854
:104240002100ED490978884201D1E46845E1EA4856
:10425000007884F821000026B146207E022806D18D
:1042600094F84600062802D1701CC6B26BE094F8A0
:1042700046000C2802D1701CC6B264E094F891008C
:1042800000281BDD14F8900F401C20702178607806
:10429000903C401EDA4A105C814254DB002084F8D6
:1042A000900094F89100072804D294F89100401CE3
:1042B00084F89100204602F0BBFE44E0B4F93400DB
:1042C000002803DBA08E401C00B2A086206FD0B374
:1042D000B4F93400B4F94410884234DB207E02285B
:1042E0000CD040346088B4F9001000EBE100A179F3
:1042F000C44A515C884000B2A080403C0020A086A7
:10430000B4F84C00B4F86010884202DAB4F84C00FB
:1043100001E0B4F8600082464FEA6A00A4F84E005B
:10432000B4F84E00E18EB0EB410F06DAE08E4FF6A6
:10433000FF7101EA4000A4F84E00E08EA4F84C00A2
:10434000204602F0CCFD207E06280BD1A07F00F095
:10435000100038B1A749606A0968081A282801D9ED
:10436000701CC6B2207A00F00800A8B3207E042892
:1043700002D0207E07282FD1A349D4F88C0008440E
:104380004FF4FA71B0FBF1F09A4A616A1268511A5F
:10439000884206D2701CC6B209F1010000F0FF0984
:1043A0001AE094F8920042F29F425043D4F88C10E5
:1043B00001EBC0004FF4FA71B0FBF1F08D4A616A75
:1043C0001268511A884207D2204602F00AFE94F879
:1043D0009200401C84F89200207E032807D1854972
:1043E000606A0968081A282801D9701CC6B2207EA4
:1043F000092807D17F49606A0968081AF02801D99D
:10440000701CC6B2F6B32046FFF7D2FE55B100BF0E
:104410007A480068844201D100BF00BF00BFE06855
:10442000E8600AE000BF75480068A04201D000BF04
:1044300000BF00BF7149E0680860B9F1000F09D002
:10444000A08B618BCDE90010231D2246A16A206D4F
:1044500002F002FDD4F88880D4F810B02746E46852
:1044600039460220FFF706F800206849087000BFAF
:10447000B8F1000F03D06FF009015846C04700BFE4
:10448000624800E003E0007800B1C0E624E0254681
:10449000E468E87F401CE877E87F95F820108842C0
:1044A0001ADB0020E8775949087000BFD5F884006E
:1044B00030B12946D5F8842028699047029001E060
:1044C0000020029000BF5148007800B19FE602989A
:1044D00010B9284602F0D8FB00BF002C7FF49BAE39
:1044E00000254B48046833E000BF207E0A2801D035
:1044F00000BF00BF00BF00263E49606A0968081A75
:10450000F02801D9701CC6B206B32046FFF750FE52
:1045100055B100BF3E480068844201D100BF00BFD2
:1045200000BFE068E8600AE000BF39480068A042C8
:1045300001D000BF00BF00BF3549E06808602746D2
:10454000E46839460220FEF795FF01E02546E4685D
:10455000002CC9D1BDE8FE8F70B505460C4600BFE2
:104560002868A04203D12868C068286017E029495C
:10457000286808600EE027480068C068A04204D19F
:104580002449E0680968C86008E022480068C068FB
:10459000204908601F4800680028ECD100BF0020B7
:1045A000E06000BF2046FFF703FE207E0A280DD002
:1045B000207E01280AD0A07F00F0010030B1A07F4A
:1045C00040F00200A077204602F05EFB207E01282A
:1045D0000BD000BFE06E08B100BF00BF00BF00BF3E
:1045E000206F08B100BF00BF00BF0020207600BFD1
:1045F00000BF70BD740000208E00002080000020ED
:10460000998B00088C8B0008B84C0A008C000020A5
:1046100084000020880000207CB504460E46002E51
:1046200061D0207E042802D0207E07285BD1606FF5
:1046300020B9A08D40F66831884254D000BFA07FD9
:1046400000F0100008B900BF00BF00BFA08B618B55
:10465000CDE90010231D2246A16A206D02F0FCFB6B
:104660002046FFF7A5FD00BF00BFF7480068A04245
:1046700005D1F5480068C068F349086018E0F248C1
:104680000068F24908600EE0F0480068C068A04287
:1046900004D1EE49E0680968C86008E0EB480068AA
:1046A000C068EA490860E94800680028ECD100BF0A
:1046B0000020E06000BF0120E549087000BF207EB7
:1046C00004280AD10A20207600BFE2480068E06092
:1046D000E048046002F061FD03E021460220FEF79D
:1046E000C9FE00207CBD207E082868D2DFE800F0EB
:1046F00004343F4F5767675F0025608B30B300BFBE
:10470000D5480068A04205D1D3480068C068D249A6
:10471000086018E0D0480068CC4908600EE0CB483B
:104720000068C068A04204D1C849E0680968C86050
:1047300008E0C6480068C068C4490860C34800680B
:104740000028ECD100BF0020E06000BF214602201D
:10475000FEF790FE002435E000252146BF48FFF714
:10476000FBFE21460320FEF785FE00242AE00025FB
:1047700000BF2146B448FFF7EFFE0120B44908709E
:1047800000BF21460220FEF775FE00241AE02046F5
:1047900001F052FF05460DB90520207612E02046B3
:1047A00001F04AFF05460DB9052020760AE02046B3
:1047B00001F042FF05460DB90920207602E00025F0
:1047C000002400BF00BF1CB115B9204602F05CFAFE
:1047D000284687E710B50446207E012803D0A07F35
:1047E00040F01000A07701212046FFF715FF10BD13
:1047F00010B501468B8D886AC218C88E40F2B45439
:104800000B6BA04201DD204600E0C88E1844101A50
:1048100004D4888DC885086B101A10BD0B6B886A8C
:10482000C01A002802DD0020C8850BE08C6A0B6BE3
:10483000181B00BFB0F5803F01D300BF00BF00BF11
:10484000C88500BF0020E8E770B504460D4600BFEC
:10485000207E012801D100BF00BF00BF00BFA08D96
:104860004FF6FF71081AA84201DA00BF00BF00BF6F
:10487000A08D2844A085A08D40F66831884201DDD6
:104880000846A0852046FFF7B3FF064640F2DA202F
:10489000864208DB00BFA07F40F00200A07700BF87
:1048A000204602F0F1F970BD2DE9F04107460D46B2
:1048B00014461E463CB121892846FFF7C5FF204615
:1048C000FEF732FF05E026B92846FFF783FFBDE873
:1048D000F0810020FBE72DE9F0410446606F477B43
:1048E000666F0020606700BFE06F40B10023324672
:1048F0002146D4F87CC02069E047054606E0002345
:10490000324621461846FFF7CFFF054600BFFDB9E6
:1049100007F0200018B3A08D40F66831884202D01D
:10492000A08D401CA08500BFE06F40B100231A4657
:104930002146D4F87CC02069E047054600E0002508
:1049400000BF05F10A0050B96FF00900BDE8F08121
:1049500005F10A0010B96FF00900F7E7666700205B
:10496000F4E770B53E480078401C3D49087000BF30
:104970003548046829E094F82100394909788842CB
:1049800023D03748007884F82100A07F00F0010090
:1049900060B100BFA07F40F00200A07700BF2046BA
:1049A00002F072F9A07F20F00300A077E568606F45
:1049B00048B10020264908702046FFF78CFF2448A4
:1049C000007800B1D4E72C4600BF002CD3D170BDD5
:1049D00010B5FFF7C6FF23480078401CC0B221493C
:1049E000087000F0010008B1FFF702FC10BD70B5BF
:1049F00004460D461646207E012802D16FF00C00B9
:104A000070BD85B1A07F40F01000A07726B10121D4
:104A10002046FFF701FEF3E7606F20B1606FFEF7FD
:104A200083FE0020606776B1207E032804D004282E
:104A300003D0072818D101E000BF00BFE9B220462B
:104A4000FFF7EAFDDCE712E080000020880000208C
:104A50008C00002084000020780000207C000020D2
:104A60008E0000208D0000206FF00C00C8E70020B1
:104A7000C6E72DE9FC4704460E4600BF207E01280C
:104A800001D100BF00BF00BF207E0A2808D1214607
:104A9000F948FFF761FD21460220FEF7EBFC2FE00D
:104AA000276DD4F82880D4F88850D4F8109000BF2F
:104AB0002146F248FFF750FD0120F149087000BF80
:104AC000206F10B1206FFFF767FBE06E10B1E06E52
:104AD000FFF762FB4EB1A08B618B231D2246CDE90F
:104AE00000104146384602F0B7F921460220FEF791
:104AF000C1FC00BF1DB16FF009014846A84700BFC7
:104B0000BDE8FC8710B5044601212046FFF7B1FF40
:104B100010BD30B5002300BFDA4804880088401C6F
:104B2000D84D28804FF6FF70844203D14FF44040A7
:104B30002C462080002117E0D34850F8210002685D
:104B40000EE0508BCF4C2488A04208D1581C80B274
:104B50000346B0F5804F01DB002030BDDCE7D268B2
:104B6000002AEED1481CC1B20429E5DBC548008803
:104B7000F3E72DE9F04705460C4617464FF00409C8
:104B800000BF287E28B100BF00BF6FF00500BDE860
:104B9000F08700BF37B9FFF7BCFF074617B96FF0C2
:104BA0000100F4E74FF0000819E0B74850F828007A
:104BB000066810E0708BB8420CD146B1306830B155
:104BC0002CB1206818B130682168884202D16FF09A
:104BD0000700DCE7F668002EECD108F10108C845B3
:104BE000E3DB1CB1206808B1206828606F8300BF38
:104BF000A6480068E860A548056002F0CEFA00BF4C
:104C00000020C4E703466FF00900704770B5044602
:104C10000E4600BF207E18B100BF00BF002070BD4F
:104C200000BF207E012801D12046F8E70320FEF7CF
:104C300006FC05460DB90020F1E720692861608B6C
:104C4000688301202876607E6876207A2872287A28
:104C500040F002002872A07AA872607A6872206818
:104C60002860608B30B300BF88480068A04205D13F
:104C700086480068C0688549086018E08348006875
:104C8000834908600EE082480068C068A04204D1F1
:104C90007F49E0680968C86008E07D480068C0682E
:104CA0007B4908607A4800680028ECD100BF0020EA
:104CB000E06000BF21460220FEF7DCFB754868611A
:104CC00000BF75480068E8607348056002F065FA47
:104CD00000BF2846A3E72DE9F04105460E463046C1
:104CE00002F064FF044654B1208C40B1208C283877
:104CF00087B2BD4201DA284600E03846054628461C
:104D0000BDE8F08165480068654909680844634961
:104D100008600846006870472DE9F05F04460E46BB
:104D20009046994600BF207E28B100BF00BF6FF0BB
:104D30000800BDE8F09F00BF16B13068606002E077
:104D40006FF00500F5E7A4F81C800CB1206868B985
:104D5000201D02F02BFF8346BBF1000F02D16FF044
:104D60000300E6E7DBF80400206000BFB4F81AA0F7
:104D7000608B38B9FFF7CDFE6083608B10B96FF0A0
:104D80000100D6E7FFF7BEFF0546002044F8280FD4
:104D9000A562681E2062606340F66830A080E080F3
:104DA0002068A06040F6683020874FF40670E081EC
:104DB000E0893146FFF78FFFE0810120A084E08980
:104DC00000EB80004FF6FF7101EA4000E084C4F878
:104DD0005890283C0221204601F08BFB0746002F0B
:104DE0003CD102202076BAF1000F26D000BF274820
:104DF0000068A04205D125480068C06823490860C2
:104E000018E022480068224908600EE02048006847
:104E1000C068A04204D11E49E0680968C86008E083
:104E20001B480068C0681A490860194800680028D3
:104E3000ECD100BF0020E06000BF00BF00BF0F4802
:104E40000068E0600D48046002F0A7F900BF01208F
:104E50000B49087000BF204601F016FF384668E78E
:104E6000417670472DE9F04106464FF07F08002754
:104E700000250248046829E084000020800000200A
:104E80008C00002070000020A08B0008780000201B
:104E900088000020054C00087C00002090000020C5
:104EA00074000020607EB0420FDC607E40450CDC68
:104EB0005D49606A0968081AB84206D35A49606AAF
:104EC00009680F1A254694F81980E468002CE9D186
:104ED00015B12846FFF716FEBDE8F08170B5002633
:104EE0000025524804680BE04F49606A0968081AB7
:104EF000B04204D34C49606A09680E1A2546E4683A
:104F0000002CF1D115B12846FFF7FCFD70BD70B53E
:104F100006460220FEF793FA04467CB9FFF7DEFF4F
:104F20000220FEF78CFA04463CB93046FFF79AFFA0
:104F30000220FEF784FA044600BF00BF002C3BD0DD
:104F40009421204603F05EFD1034667241F2D06079
:104F5000A4F856000020A4F8580040F66830A0835A
:104F6000E083002004F8070CFF2004F8060C4FF43F
:104F70000670E0840620A086002020860620608639
:104F8000C01FA0840120A087FFF7BCFE0546A564D2
:104F90002564A563E56424480068606124480078BE
:104FA00060740020E073AFF2FF60E0662148E067C4
:104FB000002084F88200103C204670BD10B54020CF
:104FC000FFF7A5FF10BD0161704700BF027E012AF7
:104FD00001D100BF00BF00BFC167704700BF027EA4
:104FE000012A01D100BF00BF00BF8167704700BF29
:104FF000027E012A01D100BF00BF00BFC0F88810A7
:1050000070474161704700BF037E012B01D100BF93
:1050100000BF00BFC0F8841080F820207047014610
:10502000054850F8210070477400002084000020DB
:105030008E00002000DD6D00608B00082DE9F84F28
:1050400004460020009000BF207E042801DA00BF43
:1050500000BF00BFFE48007800F0100000287DD09F
:10506000B4F86000A16D00EB0109FA49606D0968B0
:10507000401A15D4F749606D0968884204D1F64991
:10508000A06D0968401A0BD4F349A06D09688842E5
:1050900031D1F2480068C089B4F8601088422ADD36
:1050A000EE480068C089A4F86000B4F86200EB49DB
:1050B0000968C989884204DAE8480068C089A4F808
:1050C0006200E44800686065E3480068A065B4F8E1
:1050D000600048B994F8910068B9002084F8900005
:1050E000012084F8910006E094F89100002802DD88
:1050F000002084F89100D849A06C0968081A00289B
:1051000047DC0020A4F86400D548008838BBB4F818
:105110006010A06D0844484535D1B4F9340000282A
:1051200031DBCD49A06C096888422CD10120009068
:1051300094F84700401CC0B294F84710884204DD40
:1051400094F84700401C84F8470094F8470003286F
:1051500012DDB4F84C00E18E084401E062E10AE09F
:1051600080B2B4F84C1088420DDDB4F84C00E18EEA
:105170000844A4F84C0006E094F84700032802D144
:10518000204601F0F6FE0098002801D184F847007F
:10519000B9E0A06C401CB0490968081A7DD4AE493A
:1051A000206D0968081A002877DCA07F00F0040051
:1051B00038B1A07F20F00400A077B4F84E00A4F826
:1051C0004C0000202834A077608BB4F9181000EB55
:1051D000E10000B2A083208C9F490988081AA087AB
:1051E000E08FA18F0844E0870020E0779A480068AC
:1051F000206214F8100C283C042824DBB4F84C007E
:10520000B4F84E1088420FDAB4F84C00E18E08442E
:1052100080B2B4F84C10884215DDB4F84C00E18E31
:105220000844A4F84C000EE034F8361F4943E28AE3
:1052300091FBF2F1114488B2E18A363C814201DAF5
:10524000A4F84C0000BF34E0266F206F0068206790
:1052500000BF7068FEF79CFCB4F86810884201DD5E
:1052600000BF00BF00BFB4F8640058B1F16888897E
:10527000FDF7A2FE00F0010020B1B4F86400401E6A
:10528000A4F864007068FEF783FC34F8681F081AFD
:1052900020803046FEF773FF00E031E034F8680903
:1052A00038B100BF206F18B9E06E08B900BF00BF69
:1052B00000BF206FC8B1216FC9684868FDF78FFE35
:1052C0008346216FC9688889FDF776FE00F00300E8
:1052D00008B1012000E00020216F098908445844EA
:1052E0005D490968401A0028AEDD206F18B94FF0FB
:1052F000FF30A08601E00020A0860020E07702E0D9
:105300000020A4F8640037E0E66EE06E0068E06616
:10531000E06E10B90020A4F86A0000BF7068FEF7C4
:1053200037FCB4F86810884201DD00BF00BF00BF41
:10533000B4F8640058B1F1688889FDF73DFE00F0CB
:10534000010020B1B4F86400401EA4F86400706845
:10535000FEF71EFC34F8681F081A20803046FEF75E
:105360000EFF34F8680938B100BF206F18B9E06E3D
:1053700008B900BF00BF00BFE06EF0B1E16EC968C0
:105380004868FDF72CFE8346E16EC9688889FDF701
:1053900013FE00F0030008B1012000E00020E16EE0
:1053A0000989084458442C490968081A05D42A492F
:1053B000206D0968081A0028A6DDA06B90B3264965
:1053C000E06B0968401A2DD534F8380F2549098853
:1053D000081A0FFA80F8B4F90800A8EBE0000FFAF9
:1053E00080F82089404400B22081383CB8F1000F99
:1053F00003DAC8F100000FFA80F83834B4F90A0073
:10540000A8EBA0000FFA80F86089404400B26081E8
:105410006089B4F9081000EBE10000B2A08100201F
:1054200044F838090E480088002877DD207E0728D8
:1054300074DA0848A16A0068401C081A70D405484C
:10544000A16A0068064A12881044401E081A0BE040
:10545000A40000209C000020A00000209400002058
:10546000A600002074000020002859DCFD49A06A35
:105470000968451AFC48476800BF406808B900BF82
:1054800000BF00BF00BF47F6FF70854201DB00BFD1
:1054900000BF00BFF44840684089A84223DA00BF3B
:1054A000F14840680089A84201DA00BF00BF00BF90
:1054B000ED4840680089401B1FFA80FA06E07889B1
:1054C0002D1AA7F808A0002078813F687889A842A3
:1054D000F5DB684201B23846FEF714FB70B100BF3D
:1054E00000BF00BF0AE0E0494868694209B2FEF720
:1054F00009FB18B100BF00BF00BF00BFDA48008938
:10550000218DD84A1288891A401AD7490881D5496D
:10551000A06A0860D449C96848600CE0CFE0FFE7A2
:10552000D049A06A0968081A05D500BFA07F40F0DD
:105530000200A07700BFCB49A06A0968081A7DD491
:10554000A18DA06A0844401EC6490968081A0028AF
:1055500074DCC449A06A0968884270D1C249C9682C
:105560008889FDF729FD00F0030008B1012000E063
:105570000020BD4909890844BC490880A08D0988DC
:1055800088424DDAB849C9688889FDF715FD00F0F1
:10559000010098B1B449C9688889FDF70DFD00F094
:1055A0003E0B5846FDF702FDAF49C96889894CF2A8
:1055B000FF0211400843AC49C9688881A08DAA49FF
:1055C0000881C9688889FDF7F7FC00F0020020B166
:1055D000A5480089401EA4490881A34A1189506842
:1055E000FEF738FAA049C9688889FDF7E5FC00F0A4
:1055F000030008B1012000E000209B49098908440C
:105600009A49088000BFA18DA06A0844954909689D
:10561000964A12881144884201D000BF00BF00BFE3
:1056200090480068914909880844A06200BFA08D95
:105630008E490988884204DA00BF01E03BE036E089
:1056400000BF00BFA08D89490988401AA085204667
:10565000FFF7CEF8844840680089002806DD8248BC
:1056600040688349086000207F4948607E49C968D6
:105670008889FDF7A1FC00F0010028B17D48007881
:1056800040F020007B49087000BFA07F00F00100BF
:1056900040B1A07F20F00100A077A07F40F0020081
:1056A000A07703E0A07F40F00100A0771BE0204638
:1056B00001F05EFA17E0204601F05AFA13E069495A
:1056C000A06A0968081A08D4A18DA06A0844401E7F
:1056D00064490968081A002805DD00BFA07F40F072
:1056E0000200A07700BFBDE8F88F2DE9F0478046A3
:1056F0006148006800F114055F4909688889FDF771
:105700005BFC0521B1EB203F46DA5B4909688889DB
:10571000FDF752FC0521C1EB20304FF6FF7101EA85
:105720008006002436E015F80490B9F1000F06D089
:10573000B9F1010F05D0B9F1020F21D104E0BDE8A4
:10574000F087601C84B224E0601C285C042802D12D
:10575000201DB04200DDF2E7E01C295CA01C285CA3
:1057600041EA002740F2B450874200DC17B940F20A
:10577000B45000E03846A8F83600201D84B208E096
:10578000601C285C00B9DAE7601C285C204484B205
:1057900000BF00BFB442C6DB00BFD0E72DE9FC412B
:1057A00004464FF0000800263448007800F004005A
:1057B00080B3207E022807D13149206D09688842D4
:1057C00011D14FF001080EE02649A06A0968081AB5
:1057D00009D4A18DA06A084422490968081A002842
:1057E00001DC4FF00108B8F1000F14D000BF207E9B
:1057F00008B900BF00BF00BF1E48007840F0080095
:105800001C490870A07F20F00100A0776FF00A000B
:10581000BDE8FC8101E00020FAE71848007800F0BC
:10582000020068B1207E02280AD0207E032807D01B
:1058300000BFA07F40F00200A07700BF0020E7E794
:10584000A07F00F0100010B90E48006860620020D0
:1058500084F892002046FFF748FF207E801E08282B
:105860007CD211E09C00002094B10020A600002012
:10587000AC000020A800002094000020A40000201C
:10588000A000002074000020DFE800F004A1FAF975
:10589000F8F7F6F5FE48007800F0100000287DD0FB
:1058A000FB48007800F00200002877D0216FC9681B
:1058B0004868FDF794FB401CF649096888426DD1A1
:1058C0002834E08F401CE087F3480068401C2060CB
:1058D0002068A060EF4800682062F0480068C08936
:1058E0002087EE480068C0896087EB480068401E4A
:1058F000E062042004F8100CE089283C211DFFF729
:10590000EAF9E086E08E00EB80004FF6FF7101EAD5
:105910004000A4F84E00B4F84C00012802D1E08EFB
:10592000400000E0E08EA4F84C0000BFB4F868002E
:10593000002801DC00BF00BF00BFB4F86800401EB3
:10594000A4F86800256F286820672846FEF717FC32
:10595000206F20B94FF0FF30A08604E0F1E1002075
:10596000A08684F8460000BFD4F8800040B1002231
:105970002146D4F8803020699847064601E00DE0C2
:10598000002600BF06F10A0010B96FF009003FE7DA
:1059900000BFA07F40F00200A07717E0BC4800786D
:1059A00000F0100090B1BD4800680088BB4909684C
:1059B0004988CDE90010B8480068B94A12888118B2
:1059C000B84BB94AB348006801F046FABAE1B048AA
:1059D000007800F01000002867D0A06C401CAD4992
:1059E0000968081A4DD4AB49206D0968081A0028C7
:1059F00047DC0420207600BF606908B900BF00BF03
:105A000000BF00BF606930B100222146D4E9040321
:105A10009847064601E06FF00D0600BF46B106F15B
:105A20000A0010B12046FFF76DF86FF00900EFE6AD
:105A3000B4F84C702046FFF701FBB4F8640020B1C5
:105A4000B4F86400401EA4F86400012F02D1E08E77
:105A5000400000E0E08EA4F84C009448007800F08C
:105A6000200038B100BFA07F40F00200A07700BF47
:105A70000720207627E050E1EEE025E0A1E035E0C8
:105A800023E0864800680088844909684988CDE990
:105A9000001081480068824A12888118814B824A2E
:105AA0007C48006801F0D8F90DE07948007800F0F2
:105AB000020040B1A06A401E77490968884202D1BD
:105AC000204601F029FA3DE100BF2046FFF7B6FA73
:105AD0007648007800F0200038B100BFA07F40F089
